:020000040000FA
:10000000000002289730FE000130FF008030000021
:1000100000004B210000000083160000A1007F08B3
:10002000A0009930A2000130A30083160000200830
:10003000A4002108A500FF30A007031CA103250888
:10004000240403199A2804302207A400A501A50D51
:100050002308A5072408FE002508FF0080300000C3
:1000600000004B210000000083160000A7007F085D
:10007000A6002208FE002308FF00803000000000D8
:100080004B210000000083160000A900A5007F0896
:10009000A400A80002302207A400A501A50D230892
:1000A000A5072408FE002508FF008030000000009E
:1000B0004B210000000083160000A500AB007F0864
:1000C000AA00A400831600002608AA002708AB0097
:1000D000FF30A607031CA7032B082A040319932843
:1000E0002808FE002908FF008030000000003821A9
:1000F0000000000083160000AA00240883120313E6
:100100008400831383160000251883172A0883129E
:100110000313800083160000A80A0319A90AA40A81
:100120000319A50A6228063083160000A2070318E7
:10013000A30A1528000000009E2808000830831636
:100140008500831285018316AC01AD0183128519E8
:10015000B028051085108316AC0A0319AD0A2B29A7
:1001600083162D08803E803E031DB82801302C02E6
:10017000031C2B2983162D08803E803E031DC228B8
:1001800007302C0203182B2983162C03AE000030F5
:1001900083128A00D23083162E07031CD1288312C3
:1001A0008A0A8200D828E628F428022910291E2964
:1001B0008312051485146430FF0000306C21831213
:1001C00005106430FF0000306C212B2983120514C8
:1001D00085146430FF0000306C21831205106430F8
:1001E000FF0000306C212B29831205148514643024
:1001F000FF0000306C21831205106430FF000030D6
:100200006C212B298312051485146430FF00003003
:100210006C21831205106430FF0000306C212B2903
:100220008312051485146430FF0000306C218312A2
:1002300005106430FF0000306C212B298312051457
:1002400085146430FF0000306C2183120510643087
:10025000FF0000306C2183162C08063A031DA628E7
:100260002D08003A031DA628AC01AD01A628080000
:10027000003A03193F29803A0319462900347E08C1
:10028000840083137F188317000808007F088A0002
:100290007E0882000800003A03195329803A0319A6
:1002A0005D29FF0100347E08840083137F188317C3
:1002B0000008FF00840A0008080000000000462132
:1002C000FD00FE0FFF03FF0A000000004621FC00B6
:1002D0007D08FF007C0808008316B0007F08AF008F
:1002E000B101B201831630083202031D79292F08AB
:1002F000310203189629FB308316B3000430B40092
:10030000FF3083163307B500FF30B60034080318FA
:10031000340FB6073508B3003608B4003608350484
:10032000031D8029B10A0319B20A72290800013499
:1003300000349F340134B7340034013400340034C5
:02400E00D73F9A
:00000001FF
