:020000040000FA
:10000000000002286830FE000130FF008030000050
:10001000000032210000000083160000A1007F08CC
:10002000A0006A30A2000130A3008316000020085F
:10003000A4002108A500FF30A007031CA103250888
:10004000240403199A2804302207A400A501A50D51
:100050002308A5072408FE002508FF0080300000C3
:10006000000032210000000083160000A7007F0876
:10007000A6002208FE002308FF00803000000000D8
:1000800032210000000083160000A900A5007F08AF
:10009000A400A80002302207A400A501A50D230892
:1000A000A5072408FE002508FF008030000000009E
:1000B00032210000000083160000A500AB007F087D
:1000C000AA00A400831600002608AA002708AB0097
:1000D000FF30A607031CA7032B082A040319932843
:1000E0002808FE002908FF008030000000001F21C2
:1000F0000000000083160000AA00240883120313E6
:100100008400831383160000251883172A0883129E
:100110000313800083160000A80A0319A90AA40A81
:100120000319A50A6228063083160000A2070318E7
:10013000A30A1528000000009E2808000830831636
:1001400085008312850101308316AC00AD01831256
:100150008519B528373085006430FF000030532101
:100160008316AC0A0319AD0A1129003083162D023B
:10017000031DBC2801302C02031C112900308316FA
:100180002D02031DC52807302C02031811298316E0
:100190002C03AE00003083128A00D53083162E0760
:1001A000031CD42883128A0A8200DB28E328EB2868
:1001B000F328FB280A292B30831285006430FF00C6
:1001C0000030532111292930831285006430FF004B
:1001D0000030532111292830831285006430FF003C
:1001E0000030532111290930831285006430FF004B
:1001F0000030532111292830831285006430FF001C
:10020000003053211930831285006430FF00003024
:10021000532111290830831285006430FF0000301B
:10022000532183162C08063A031DA7282D08003AEF
:10023000031DA7280130AC00AD01A7280800003A33
:1002400003192629803A03192D2900347E088400D9
:1002500083137F188317000808007F088A007E0830
:1002600082000800003A03193A29803A0319442908
:10027000FF0100347E08840083137F188317000871
:10028000FF00840A00080800000000002D21FD0086
:10029000FE0FFF03FF0A000000002D21FC007D0877
:1002A000FF007C0808008316B0007F08AF00B10192
:1002B000B201831630083202031D60292F08310273
:1002C000031867298316B10A0319B20A59290800CD
:1002D0000134003470340134B33400340134003458
:0202E0000034E8
:02400E00D73F9A
:00000001FF
