:020000040000FA
:100000000000A8280830831685008312850101307E
:100010008316AC00AD01831285191928373085008D
:100020006430FF00003078218316AC0A0319AD0A52
:100030009A2883162D08803E803E031D212801301A
:100040002C02031C9A2883162D08803E803E031D37
:100050002B2807302C0203189A2883162C03AE0095
:10006000003083128A003B3083162E07031C3A2887
:1000700083128A0A8200412850285F286E287D2832
:100080008C280830831285006430FF00003078210E
:100090003F30831285006430FF00003078219A28B9
:1000A0000830831285006430FF00003078213F3033
:1000B000831285006430FF00003078219A280830D0
:1000C000831285006430FF00003078213F308312B6
:1000D00085006430FF00003078219A2808308312B0
:1000E00085006430FF00003078213F3083128500A6
:1000F0006430FF00003078219A2808308312850090
:100100006430FF00003078213F3083128500643076
:10011000FF00003078219A2808308312850064306F
:10012000FF00003078213F30831285006430FF00EB
:100130000030782183162C08063A031D0B282D0861
:10014000003A031D0B280130AC00AD010B2808005C
:10015000A330FE000130FF00803000000000572176
:100160000000000083160000A1007F08A000A53059
:10017000A2000130A300831600002008A40021087B
:10018000A500FF30A007031CA103250824040319C0
:10019000402904302207A400A501A50D2308A507C6
:1001A0002408FE002508FF008030000000005721D1
:1001B0000000000083160000A7007F08A6002208A8
:1001C000FE002308FF0080300000000057210000DF
:1001D000000083160000A900A5007F08A400A80065
:1001E00002302207A400A501A50D2308A5072408B5
:1001F000FE002508FF0080300000000057210000AD
:10020000000083160000A500AB007F08AA00A40030
:10021000831600002608AA002708AB00FF30A607B7
:10022000031CA7032B082A04031939292808FE00F8
:100230002908FF0080300000000044210000000079
:1002400083160000AA00240883120313840083137A
:1002500083160000251883172A08831203138000D1
:1002600083160000A80A0319A90AA40A0319A50AFB
:100270000829063083160000A2070318A30ABB282A
:100280000000000002280800003A03194B29803AB8
:100290000319522900347E08840083137F188317C2
:1002A000000808007F088A007E0882000800003AE3
:1002B00003195F29803A03196929FF0100347E0878
:1002C000840083137F1883170008FF00840A000846
:1002D0000800000000005221FD00FE0FFF03FF0A8E
:1002E000000000005221FC007D08FF007C0808008F
:1002F0008316B0007F08AF00B101B2018316300849
:100300003202031D85292F0831020318A229FB3070
:100310008316B3000430B400FF3083163307B500F2
:10032000FF30B60034080318340FB6073508B300A1
:100330003608B40036083504031D8C29B10A0319A8
:10034000B20A7E29080001340034AB340134B734DA
:080350000034013400340034D4
:02400E00D73F9A
:00000001FF
